:020000040801F1
:04000000A98C0100C6
:1000040080B572B60748006880F3088806495FF037
:10001400006012F0E4FC054800688047044800686A
:10002400401C01BD00010108000101000401010898
:0400340000000108BF
:1001000020A2002031A203086DA303086FA30308F7
:1001100071A3030873A3030875A30308000000007C
:10012000000000000000000000000000A9A6030875
:1001300077A30308000000003F2202085F230208A3
:10014000B9A60308BDA60308C1A60308C5A60308EF
:10015000C9A60308CDA60308D1A60308D5A603089F
:10016000D9A60308DDA60308E1A60308E5A603084F
:10017000E9A60308EDA6030805310208F5A6030861
:10018000F9A60308FDA6030801A7030805A70308AD
:1001900009A703080DA7030811A70308A7A80108CA
:1001A000C53002081DA7030821A7030825A70308D7
:1001B00029A703082DA7030831A7030835A70308BB
:1001C00039A703083DA7030841A7030845A703086B
:1001D00049A703082B30020851A7030855A70308B5
:1001E00059A703085DA7030861A7030865A70308CB
:1001F00069A703086DA7030871A7030875A703087B
:1002000079A703087DA7030881A7030885A703082A
:1002100089A703088DA7030891A7030895A70308DA
:1002200099A703089DA70308A1A70308A5A703088A
:10023000A9A70308ADA70308B1A70308B5A703083A
:10024000B9A70308BDA70308C1A70308C5A70308EA
:10025000C9A70308CDA70308D1A70308D5A703089A
:10026000D9A70308DDA70308E1A70308E5A703084A
:10027000E9A70308EDA70308F1A70308F5A70308FA
:10028000F9A70308DFF82C1C0870704770B5CAB0D6
:10029000DFF8240CFF21017001200500802002906E
:1002A00003A8019001200090802300222900C9B2F8
:1002B000DFF8080C08F0F2F90600F6B2002E0CD1B7
:1002C0007C2103A808F016FD0400A4B22298844201
:1002D00003D1DFF8E40B012101709620029023A8DE
:1002E000019001200090962300222900C9B2DFF876
:1002F000CC0B08F0D3F90600F6B2002E0DD19221F6
:1003000023A808F0F7FC0400A4B2DDF81E01844223
:1003100003D1DFF8A40B00210170DFF89C0B0078FB
:100320004AB070BD2DE9F041AAB004005FF00008AA
:10033000012006009620029003A801900120009061
:10034000962300223100C9B2DFF8700B08F0A6F93D
:100350000700FFB2002F33D1229880B24FF6FF7111
:1003600088422DD0239800282AD02398052827D208
:10037000922103A808F0BEFC0500ADB2DDF89E0096
:1003800085421DD19622DFF8380B011903A808F029
:1003900015FD922108F0AEFC0500ADB2DDF89E001F
:1003A00085420DD1229880B24FF6FF71884207D066
:1003B0002398002804D02398052801D201208046E4
:1003C0004046C0B22AB0BDE8F081F0B591B000203F
:1003D00004000AF061F84FF47A71B0FBF1F0060006
:1003E0000AF05AF84FF47A71B0FBF1F00700DFF829
:1003F000D40A006801210182FFF748FFFF2803D1DA
:10040000DFF8C40A02F08AFB36224FF4DD7102A83D
:100410000AF05DFADDF80900FFF784FF002804D038
:10042000DFF8940A0078002803D0002004F030FDA3
:1004300008E0BDF83C00DFF8941A0880DDF80900F8
:1004400004F026FD08F053FB08F007FB0AF09FFFBD
:100450000AF065FF0AF034FC0BF077F906200BF088
:10046000D7F901200BF085F901AA0021DFF8600A15
:10047000006809F009FD00200BF018FB04000BF0E8
:100480005BFB002810D0012828D0022812D00328B6
:1004900037D005284CD0062850D0072814D008287B
:1004A00052D0092856D079E0E4B2200080B202F0A0
:1004B00049FB73E0DFF89C0C03218170E4B220005B
:1004C00080B204F07BFF69E0DFF8880C05218170C1
:1004D000E4B2200080B204F071FF5FE0002005006C
:1004E000DFF8740C10EB850083680022DFF8680CDD
:1004F000281890F84D10E4B2200080B202F04AFDB6
:100500004CE0DFF8540C0BF0FAFD00200500DFF89A
:10051000480C10EB850083680022DFF83C0C28189B
:1005200090F84D10E4B2200080B202F033FD35E0C7
:10053000E4B2200080B200F0CDFC2FE0E4B2200055
:1005400080B200F01FFF29E0E4B2200080B200F08A
:1005500039FA23E0DFF8A00D006880B20CF058FAF9
:10056000002807D1DFF8900D006880B20CF055FA32
:1005700000280ED0DFF8E40B0078C0F34000C0B2D2
:10058000002806D00C200CF06FFA02F0BDFA08200B
:100590000400E4B2200080B20CF004FDE4B2002CB0
:1005A00041D1300080B20EF0E6FDB0F5967F17DB4A
:1005B00009F072FF4FF47A71B0FBF1F00600DFF83A
:1005C000940B00218170DFF88C0B002101700AF080
:1005D000DEFEDFF88C0B0021018006200BF018F9FD
:1005E000380080B20EF0C7FD0A28FFF63AAF09F0D6
:1005F00053FF4FF47A71B0FBF1F00700DFF85C0BAA
:100600000078C0F38000C0B200283FF42AAFDFF8C2
:10061000E80C0068ADF800000321BDF80000C0B28E
:100620000CF02EFA1DE708F062FA0AF078FE09F0E5
:1006300033FF4FF47A71B0FBF1F0060009F02CFFA4
:100640004FF47A71B0FBF1F007000AE72DE9F84F9B
:10065000DEB004000D001600BDF87801B6B2B0425D
:1006600006D2A81BBDF878110818401C070004E04A
:10067000BDF87801801B401C070000208346012044
:1006800082461FFA8AFABFB2BA451CD201231FFA6A
:100690008AFADFF8980C50F82A20DFF8C00C41687D
:1006A0002DA802F09FFA03212DA80EF00DFEBDF833
:1006B000FC00022802D11BF1020B01E01BF1010B2F
:1006C0001AF1010ADDE710208046002082461FFA59
:1006D0008AFAADB2AA4580F08B801FFA8AFABAF185
:1006E000040F80F28580ADB2BFB2BD4203D20120BB
:1006F0000700002083460123BFB2DFF8300C50F81A
:100700002720DFF8580C41682DA802F06BFA03216E
:100710002DA80EF0D9FDBDF8FC0002280ED11FFA5D
:100720008BFB34F81B001FFA8BFB14EB4B01498841
:1007300010EB014039901BF1020B06E01FFA8BFB16
:1007400034F81B0039901BF1010B1FFA8AFAB6B27C
:10075000B24502D10220814601E000208146962266
:10076000DFF8F80B4068DFF85817091807A808F0F9
:1007700025FB03AB2FAA0100DFF8E00B406804F073
:100780006FFD03AA8EA1DFF8DC0B0FF027F8002025
:100790000190DFF8D40B0090DFF8C83B4A46D2B294
:1007A0001FFA88F8414600200FF032F837A802906F
:1007B000DFF8B03B029A2DA9DFF8A00B406807F0E4
:1007C00083FC18F1100800200190DFF89C0B0090CA
:1007D000DFF8903B4A46D2B21FFA88F84146002023
:1007E0000FF016F818F110081AF1010A7F1C6EE7D5
:1007F0005FB0BDE8F08F2DE9F64FADB004001020DA
:10080000824600200700BDF8B400BFB2874280F0E6
:10081000D38000200600012081460020804601236D
:100820001FFA89F9DFF8040B50F82920DFF82C0BA8
:1008300041681FFA88F8C420DFF830CB00FB08C0FD
:1008400002F0D0F903211FFA88F8C420DFF81C2B2E
:1008500000FB08200EF038FD1FFA88F8C420DFF8EE
:100860000C1B00FB0810B0F8480002281AD1B6B2E1
:10087000BFB2782000FB074030F81600B6B2BFB216
:10088000782101FB074111EB4601498810EB01403B
:100890001FFA88F8C421DFF8D42A01FB0821086375
:1008A000B61C0FE0B6B2BFB2782000FB074030F8AC
:1008B00016001FFA88F8C421DFF8B02A01FB0821CE
:1008C0000863761C1FFA88F8C420DFF8A01A00FB22
:1008D0000810008B002865D0BDF8B800BFB2874271
:1008E00002D10220834601E0002083469622DFF8F1
:1008F0006C0A4068DFF8C815091806A808F05EFA07
:1009000002AB1FFA88F8C421DFF8602A01FB082136
:1009100011F108020100DFF8440A406804F0A0FC6D
:1009200002AA27A1DFF83C0A0EF058FF0020019030
:10093000DFF8340A0090DFF82C3A5A46D2B21FFA98
:100940008AFA514600200EF063FF1FFA88F8C4208F
:10095000DFF8181A00FB081028300500DFF8043A09
:100960002A001FFA88F8C420DFF8001A00FB0811DB
:10097000DFF8E809406807F0A7FB1AF1100A002029
:100980000190DFF8E4090090DFF8D8395A46D2B276
:100990001FFA8AFA514600200EF03AFF1AF1100AA7
:1009A00018F1010819F101091FFA88F8B8F1020FCE
:1009B000FFF635AF7F1C26E72FB0BDE8F08F0000B3
:1009C000257300002DE9F14FE2B000200700DFF8A9
:1009D0008C0940880600DFF89809007A10F00100C1
:1009E000002840F0A180012004909622DFF86C09D5
:1009F0004068DFF8CC1409183CA808F0DFF9DFF8EC
:100A00005C09806800280AD01422DFF85009806849
:100A1000DFF8AC14091806A808F0D0F905E0142294
:100A2000DFF8501906A808F0C9F9DFF82C07B0F86C
:100A30004630DFF82809426806A93CA805F0D0F83E
:100A400003900398401EDFF8281988810398022834
:100A50000AD20FF079FB02F027F90E220021DFF80D
:100A600010090FF07BFB22E23300DBB2DFF8BC0899
:100A70000268DFF8E80841680BA802F0B3F8BDF897
:100A80004400DFF8EC18488180B20500DFF8E83850
:100A90002A00D2B23100C9B2DFF8200407F0ECFD21
:100AA00000282ED100208046B8F1060F0CD2DFF8C6
:100AB000C80830F818000EF011FDDFF8BC1821F856
:100AC000180018F10108EFE70A21DFF8AC0808F078
:100AD00011F905900598DFF8A018498988420AD1D4
:100AE00000200490DFF88808008950F00100DFF84A
:100AF000801808810AE00F200BF0B6FF02F00EF814
:100B000004E001200BF0B0FF02F008F80498002880
:100B100008D00FF019FB0E220021DFF854080FF067
:100B20001DFBC4E101200700BDF88801022841D067
:100B3000032800F08B80072802D0082813D0E0E0BB
:100B4000DFF82C080089C0F3400080B2002809D1EA
:100B5000DFF81C08008950F00200DFF81418088143
:100B600001200700CDE0DFF808080089C0F340004D
:100B700080B2002813D0DFF8F80700894FF6FD7126
:100B80000840DFF8EC17088101200700DFF8E007D4
:100B900000218180DFF8D8070021C180B1E00FF08B
:100BA000D3FA02F081F80E220021DFF8C4070FF01B
:100BB000D5FA7CE101200700DFF8B4070089C0F313
:100BC000400080B2002820D1DFF8A4070088002868
:100BD00007D0DFF89C070088401EDFF894170880D4
:100BE00006E0DFF894074088401EDFF8841708808D
:100BF000DFF87C074088002827D0DFF8740740889A
:100C0000401EDFF86C1748801FE0DFF8640780881B
:100C1000002807D0DFF858078088401EDFF85017FB
:100C2000888006E0DFF848078089401EDFF840171B
:100C30008880DFF83C07C088002806D0DFF830073E
:100C4000C088401EDFF82817C8805AE0012007003E
:100C5000DFF81C070089C0F3400080B2002828D1CB
:100C6000DFF80C070088401CDFF804170880DFF865
:100C700000070088DFF800174988884203D3DFF8AF
:100C8000F00600210180DFF8E8064088002838D10E
:100C9000DFF8DC064088DFF8E0164988491E884204
:100CA0002FDADFF8CC064088401CDFF8C4164880F5
:100CB00027E0DFF8BC068088401CDFF8B416888087
:100CC000DFF8AC068088DFF8A8168989884203D34C
:100CD000DFF89C0600218180DFF89406C088032895
:100CE0000FDADFF88C06C088DFF884168989491E80
:100CF000884206DADFF87806C088401CDFF87016F4
:100D0000C880002F00F0D38007F0D5F9DFF8600627
:100D10000089C0F3400080B2002840F09780DFF8DF
:100D200050060088DFF848164988401A8146DFF8E7
:100D300048064088814504D3DFF83C064088401EC1
:100D40008146DFF82C064089050000208246BAF172
:100D5000020F55D2DFF820068088824550D2DFF896
:100D60001806C18848460FF004FA040002200290D9
:100D70007820DFF8081600FB0A1001902800C0B2A6
:100D80000090DFF8F405C0884300DBB22200310098
:100D9000C9B24A4807F082FC01208046DFF8D80536
:100DA000C088804512D27820DFF8D01500FB0A1BDE
:100DB0007820DFF8C81500FB0A1030F818000EF094
:100DC0008DFB2BF8180018F10108E7E77820DFF811
:100DD000AC1500FB0A10008880B2000A7821DFF809
:100DE0009C2501FB0A21088019F10109DFF888051B
:100DF0008088814501D3002081461AF1010AA6E7C7
:100E0000DFF87405808803280DDB102001909C20FA
:100E10000090DFF85C05038810220821DFF85805F0
:100E200080880FF074F8DFF850054088022803DA54
:100E3000DFF84405418800E00221DFF834054288EC
:100E400089B2DFF83805FFF7D6FC2EE0DFF8200581
:100E50000089C0F3400080B2002826D0DFF81005DA
:100E6000808905280DDB102001909C200090DFF880
:100E70000005838810220821DFF8F40480890FF030
:100E800046F8DFF8EC048388DFF8E404C288DFF872
:100E9000E0048189DFF8D80440885FF0780CDFF83F
:100EA000DCE40CFB00E0FFF7D1FB0FF090FA63B03D
:100EB000BDE8F08F0A72002008720020E06A00206E
:100EC0000000040850710020B89F0308EA71002058
:100ED00098710020F0B58DB0040028229E48B0F82B
:100EE00046003621484310F5DD70C11D02A809F007
:100EF000EEFCA4B22000022824D0032809D0042844
:100F000000F08580072836D0082850D0092863D003
:100F10008DE0DFF8AC0D0088132812DADFF8A00DA1
:100F20000088401CDFF8981D0880DFF8940D408889
:100F3000022806DADFF8880D4088401CDFF8801DA3
:100F4000488074E0DFF8780D0088002812D0DFF8C0
:100F5000700D0088401EDFF8681D0880DFF8600D06
:100F60004088002806D0DFF8580D4088401EDFF882
:100F7000501D48805BE003200AF04AFC75480121BF
:100F800001707448DFF8381D0988417071480021EC
:100F90008170DFF8EC030021A0F80811DFF8E0030E
:100FA0000021C0F8181103200AF032FC3FE0DFF8FE
:100FB000D0030021C0F818116648002181706548EF
:100FC0000021017003200AF023FC04220021DFF835
:100FD000F00C0FF0C3F82AE003200AF019FC5D487A
:100FE000012101705B48DFF8D81C0988417059481D
:100FF00000218170DFF888030021A0F80811E04883
:101000000021C0F8181103200AF002FC0FE051483B
:10101000002181704F480021017003200AF0F8FB85
:1010200004220021DFF8980C0FF098F8FFE707F092
:1010300042F807200BF00DFD0200BBA1C9480EF0DD
:10104000CDFB00200190C8480090C64B0022002133
:1010500005200EF0DDFB41200500DFF8640C008860
:10106000DFF85C1C4988401A0600F6B2DFF8500C25
:101070000088DFF84C1C4988401AC01C864256DAAA
:10108000F6B202A810EB46004378F6B202A810F8B8
:101090001620DFF8301CB3480EF0A0FBDFF8200C60
:1010A0004088F6B2DFF8181C0988711ADFF8102C96
:1010B00052885118884202D10120070001E0002027
:1010C000070000200190A8480090A64B3A00D2B239
:1010D000F6B2DFF8EC0B0088301ADFF8E41B498821
:1010E00008182821484310F12301EDB228000EF022
:1010F0008FFBF6B2721C9AA19A480EF06FFB00208B
:10110000019099480090974B0022F6B2DFF8B00B9F
:101110000088301ADFF8A81B49880818282148439E
:1011200010F1230102200EF073FB761C9DE71020C6
:1011300001909C200090DFF8880B03881022082182
:1011400014200EF0E4FE01F039F80FF040F90DB074
:10115000F0BD000054710020486E00207014002083
:10116000F86E00202DE9F041ADF5267D04000D005C
:10117000DFF8540B0078002805D08022002119A840
:101180000EF0ECFF04E09622002139A80EF0E6FFF5
:10119000ADB2002D40F0AB800A2080465FFA88F89F
:1011A000B8F1000F30D0DFF8200B007800280ED007
:1011B0008020029019A80190012000908023002235
:1011C0002100C9B205A807F069FA06000DE09620D3
:1011D000029039A80190012000909623002221005E
:1011E000C9B205A807F05AFA060004AB1222210082
:1011F000C9B205A807F02EFA30430600F6B2002E59
:1012000002D0B8F10108C9E7F6B2002E3ED1DFF8EE
:10121000B80A007800280AD07C2119A807F06AFDD6
:101220000700BFB2389887420DD0002060E09221BD
:1012300039A807F05FFD0700BFB2DDF876018742ED
:1012400001D0002054E0BDF810000EF047F9ADF8D1
:101250000C00022103A807F04DFD0700BDF81200A5
:10126000BFB2874201D0002042E03622ADB2362024
:1012700000FB05F010F5DD710BA809F028FBBDF8A7
:101280001200BDF85E10884208D101E000202FE076
:10129000BDF81000BDF85C10884201D0002027E0A6
:1012A000DFF8240A007800280ED08022DDF82D0017
:1012B000DFF86C1D09185FA807F080FD7E9838994B
:1012C000884212D0002013E09622DDF82D00DFF8CE
:1012D000501D09187FA807F071FDDDF88E02DDF8BA
:1012E0007611884201D0002002E0012000E00020B9
:1012F0000DF5267DBDE8F0810C14002038B5040002
:1013000000200500EDB2182D0DDAC422EDB2C42084
:10131000164900FB0511EDB2C42000FB054007F0A3
:101320004DFD6D1CEEE731BD2573000060610020AE
:1013300038B5040000200500EDB2182D0DDAC422E6
:10134000EDB2C42000FB0541EDB2C420074B00FB09
:10135000053007F033FD6D1CEEE731BDC46F002092
:101360002564290010660020A4030020C803002083
:10137000D8700020D06F0020F87000201069002085
:10138000F05100202DE9F04FD5B0ADF5905D04008F
:10139000DFF8900C0088002840F0CC8000208346C5
:1013A0001FFA8BFBBBF1000F35D15946C9B2DFF8EC
:1013B000780C09F0CFFB00281ED01FFA8BFBDFF85A
:1013C000640C10EB8B00DFF85C1CD1F80310C160DB
:1013D0001FFA8BFBDFF84C0C1BEB0000DFF8441C02
:1013E000897880F844101BF10100DFF8381C81F87F
:1013F00053001BF1010BD3E71FFA8BFBBBF1000F6E
:1014000009D103200AF004FA10200BF02DFB01F0A3
:101410007BFB00F04EBCDFF80C0C90F85210DFF8AC
:10142000080C09F097FB002807D1DFF8F80B002122
:1014300080F852100020834604E0DFF8E80B90F8B3
:10144000520083461FFA8BFBDFF8D80B10EB8B00A2
:10145000C068DFF8D81B086021A8FFF74FFFDFF84E
:1014600068080078002827D08022DFF8C00B0068C9
:10147000DFF8AC1B0918DFF8B80B07F09FFC282237
:10148000DFF8A00B90F852003621484310F5DD70CC
:10149000C11D0DA809F01BFADFF8900B0068009041
:1014A00041F2E4236B4441F210326A44DFF8801BBE
:1014B0000DA80FF039F824E09622DFF8700B0068D1
:1014C000DFF85C1B0918DFF8F00C07F077FC282226
:1014D000DFF8500B90F852003621484310F5DD70CC
:1014E000C11D0DA809F0F3F9DFF8400B006800906A
:1014F00041F230336B441CAADFF8BC1C0DA80FF07E
:1015000013F8DFF8200B90F85200DFF8181B401892
:1015100090F84400FEF7B6FEDFF8100B006803F009
:1015200073FCDFF8080B006803F0B2FCDFF8F40A84
:10153000012101800020ADF80E0000208DF80C0084
:101540000BF001FB00280ED1A4B2052C02D0A4B2EE
:10155000062C03D100208DF80C0002E020008DF84D
:101560000C0000200400A4B2200001285BD0022857
:1015700065D0032870D0072802D0082830D078E042
:10158000DFF8A00A90F8530002281DDBDFF8940A68
:1015900090F85200DFF88C1A91F85310491E8842D7
:1015A00009DADFF8800A90F85200401CDFF8741A5C
:1015B00081F8520004E0DFF86C0A002180F8521034
:1015C0000120ADF80E0054E0DFF8580C0021C0F8FF
:1015D0001C1121A8FFF7ACFE03200AF019F968E3FB
:1015E000DFF8400A90F8530002281BDBDFF8340ACA
:1015F00090F85200002809D0DFF8280A90F852002D
:10160000401EDFF8201A81F8520008E0DFF8140AC3
:1016100090F85300401EDFF80C1A81F852000120A8
:10162000ADF80E0025E0DFF8FC0B0021C0F81C111E
:1016300021A8FFF77DFE03200AF0EAF839E3DFF87E
:10164000940C0078002806D0DFF8880C0078401E43
:10165000DFF8801C08700CE0DFF8780C00781128A7
:1016600006DADFF8700C0078401CDFF8681C0870A0
:10167000FFE7BDF80E00002800F09480DFF8B40DFD
:10168000006808F029FADFF89C0990F852008346B8
:101690001FFA8BFBDFF88C0910EB8B00C068DFF8BA
:1016A0008C190860DFF820060078002827D08022F7
:1016B000DFF878090068DFF868190918DFF87009A1
:1016C00007F07CFB2822DFF85C0990F852003621F5
:1016D000484310F5DD70C11D0DA809F0F8F8DFF8DA
:1016E0004C090068009041F2E4236B4441F210324F
:1016F0006A44DFF83C190DA80EF016FF24E096228C
:10170000DFF828090068DFF818190918DFF8A80AB7
:1017100007F054FB2822DFF80C0990F8520036211C
:10172000484310F5DD70C11D0DA809F0D0F8DFF8B1
:10173000FC080068009041F230336B441CAADFF8CB
:10174000781A0DA80EF0F0FEDFF8D80890F85200D5
:10175000DFF8D018401890F84400FEF793FDDFF84A
:10176000C40890F8521089B2DFF8B80890F8520017
:10177000DFF8B028801890F84400FFF7F3FC002849
:1017800010D111200BF070F901F0BEF921A8FFF77C
:10179000CFFD03200AF03CF854220021DFF8840832
:1017A0000EF0DCFC17A9DFF88C0C006808F0D3FA07
:1017B000BDF86000002822D10121DFF8480E0DF0AD
:1017C00083FD0121DFF8100B0DF07EFDDFF8040B27
:1017D000007883461FFA8BFBDFF8F80A0078C01CFC
:1017E00083450CDA01211FFA8BFBC420DFF8182E89
:1017F00000FB0B200DF068FD1BF1010BEAE700F088
:1018000071FD06F058FC6E2080462C208146032096
:10181000029002200190012000904846B0F11A0386
:101820009BB2A0224846B0F11A0189B200200EF006
:1018300042FADFF8A00A007883461FFA8BFBDFF834
:10184000940A0078C01C834580F261811FFA8BFBEB
:10185000C420DFF8B41D00FB0B1090F89400C0F317
:101860004000C0B2002817D11FFA8BFBDFF86C0ACA
:1018700030F81B00082880F2DE801FFA8BFBC420A2
:10188000DFF8841D00FB0B1090F89400C0F380007B
:10189000C0B2002800F0CF801FFA8BFBC420DFF815
:1018A000681D00FB0B1028300500DFF820342A00EB
:1018B0001FFA8BFBC420DFF8501D00FB0B11DFF873
:1018C0006C07006806F000FC95F8260001286CD033
:1018D0001FFA8BFBC420DFF8301D00FB0B1090F8C3
:1018E0002C00C0B2DFF8F81911EBC001DFF8DC03FF
:1018F0000FF046F80700002F01D000203870DFF805
:10190000CC030FF045F80600B6B2062E0EDA300012
:1019100080B2D0F10600022190FBF1F08619DFF8C9
:10192000AC23D0A108A80DF059FF08E0B6B2E748F3
:1019300000213154E54AE1A108A80DF04FFF022033
:101940000190DFF8C80C009008AB0022B9F10D013E
:1019500040460DF05DFF80461FFA8BFBC420DFF888
:10196000A81C00FB0B1090F82C00C0B2DFF8701917
:1019700011EBC002D1A108A80DF030FFDFF88C0CEC
:10198000407810EB0900DFF8881C4978401A0D38C0
:10199000824600200190DFF8780C009008AB00220E
:1019A000514640460DF034FF2FE06E208046C74878
:1019B0000EF0EEFF0600B6B20C2E0FDBC34800217E
:1019C000C17200200190DFF84C0C0090BF4B002248
:1019D000B9F1060106200DF01BFF0BE0022001907B
:1019E000DFF8300C0090B94B0022B9F106019F20BE
:1019F0000DF00EFFDFF8140C407810EB0900DFF853
:101A0000101C4978401A0D3882461FFA8BFBC420FF
:101A1000DFF8F41B00FB0B1090F89400C0F34000BB
:101A2000C0B2002819D01FFA8BFBDFF8B0080021E4
:101A300020F81B1011E0DFF80C2D8AA1A3480DF04F
:101A4000CDFE02200190DFF8C40B00909F4B0022D6
:101A5000B9F1100140460DF0DBFE1FFA8BFBDFF8F9
:101A60007C0830F81B00401C1FFA8BFBDFF86C1859
:101A700021F81B0094480078002811D004AB1FFA0D
:101A80008BFBC420DFF8801B00FB0B1010F19502CC
:101A9000DFF89C15DFF89405006803F0E1FB10E027
:101AA00004AB1FFA8BFBC420DFF85C1B00FB0B10A0
:101AB00010F10802DFF80017DFF87005006803F086
:101AC000CFFB04AA7DA181480DF088FE0020019083
:101AD000DFF83C0B00907D4B0022B9F11A01022087
:101AE0000DF096FE0320029002200190012000904C
:101AF00019F110039BB2A02219F1100189B2002044
:101B00000EF0D9F819F12A091BF1010B95E6DFF85F
:101B1000C4070078002805D0DFF82C2C9621192066
:101B20000EF052FFDFF8AC070078112805DADFF875
:101B30001C2C962123200EF047FFDFF8E80490F8D4
:101B400052008346DFF8080C0078C0F34000C0B2B2
:101B5000002815D0DFF8FC0B0068ADF800000099F4
:101B60001FFA8BFBDFF8BC041BEB000090F844006D
:101B700080B200F0ADF8DFF8E00B002101803DE01D
:101B8000DFF8D40B0088042819DADFF8C40B0078DA
:101B9000C0F38000C0B2002811D0DFF8B80B006895
:101BA000ADF8000000991FFA8BFBDFF878041BEBFF
:101BB000000090F8440080B200F08AF817E04FF679
:101BC000FF70ADF8000000991FFA8BFBDFF854049A
:101BD0001BEB000090F8440080B200F079F8DFF8C9
:101BE000700B007810F0FB00DFF8641B0870DFF862
:101BF000680B0088401CDFF8601B0880DFF85C0B76
:101C00000078C0F34000C0B2002810D0DFF8500BBD
:101C10000068ADF800000099DFF8480B007880B24A
:101C200000F008FADFF8580D002101803BE0DFF8F2
:101C3000500D0088042817DADFF8200B0078C0F375
:101C40008000C0B200280FD0DFF8140B0068ADF898
:101C500000000099DFF80C0B007880B200F0EAF980
:101C60001AE000BF253573004FF6FF70ADF8000095
:101C700000991FFA8BFBDFF8AC031BEB000090F818
:101C8000440080B200F0D6F9DFF8D00A007810F0F6
:101C9000FB00DFF8C81A0870DFF8E40C0088401C6D
:101CA000DFF8DC1C08809DF80C000AF008FF0EF03D
:101CB0008EFB55B00DF5905DBDE8F08F25730000EB
:101CC0006471002094A203080872002010660020AE
:101CD00032B584B00400DFF8AC0C0078012817D1CD
:101CE00007200AF0B6FE0200CCA1DFF89C0C0DF034
:101CF00075FD00200190DFF818090090DFF8883C9E
:101D00000022002105200DF083FD00F057FA83E149
:101D100000200290DFF8740C00880DF03FFAB0F557
:101D2000FA7F0BDD08F0B8FBDFF8601C0880DFF8F5
:101D3000600C0078401CDFF8581C0870BDF81000DB
:101D4000000614D0DFF84C0C0088002813D1BDF831
:101D50001000C0B2FF280ED0DFF8380C012101803E
:101D60000321BDF81000C0B20AF08AFE03E0DFF8DC
:101D7000240C0021018000200AF06BFE0100DFF836
:101D8000080C0DF02BFD00200190DFF88408009076
:101D9000DFF8F43B0022002100200DF039FDBDF8F2
:101DA00010004FF6FF7188420CD100200190DFF83F
:101DB00060080090DFF88C390022002182200DF0AD
:101DC00027FD29E1BDF81000C0F3002080B20028F3
:101DD0000CD0BDF8080050F40040ADF80800DFF862
:101DE000182D002190200EF0EFFD0BE0BDF80A0049
:101DF00050F01000ADF80A00DFF8002D002190200F
:101E00000EF0E2FDBDF8100080B2C00B80B20028D9
:101E100000F08680BDF80A0050F48050ADF80A004A
:101E2000BDF81000C0F3C02080B2002823D0DFF836
:101E3000600B0078042190FBF1F202FB1102150007
:101E4000BDF81000C0F3402080B2002809D0ADB228
:101E5000DFF8AC0C10EB451200217C200EF0B4FD35
:101E6000D6E0ADB2DFF89C0C10EB451200217C20CF
:101E70000EF0AAFDCCE0BDF81000C0F3802080B2C7
:101E8000002823D0DFF8080B0078042190FBF1F242
:101E900002FB11021500BDF81000C0F3402080B213
:101EA000002809D0ADB2DFF85C0C10EB4512002120
:101EB0007C200EF089FDABE0ADB2DFF8440C10EBF6
:101EC000451200217C200EF07FFDA1E0DFF8080D17
:101ED0000078002840F09C80DFF8B40A00780321E5
:101EE00090FBF1F201FB12000500BDF81000C0F3F9
:101EF000402080B2002809D0ADB2DFF8E00C10EB32
:101F0000451200217C200EF05FFD81E0ADB2DFF8CC
:101F1000D00C10EB451200217C200EF055FD77E02F
:101F2000BDF81000C0F3403080B200281FD0BDF8CB
:101F30000A0050F48060ADF80A00DFF8540A007817
:101F4000022190FBF1F202FB11021500ADB2002D4F
:101F500006D1DFF8402D00216A200EF035FD57E054
:101F6000DFF8342D00216A200EF02EFD50E0BDF880
:101F70001000C0F3803080B2002819D0BDF80A00EC
:101F80004FF2FF710840ADF80A00DFF8040A00784C
:101F9000042190FBF1F202FB11021500ADB2DFF853
:101FA000FC0C10EB451200217C200EF00DFD2FE003
:101FB000BDF81000C0F3003080B200280CD0BDF88E
:101FC0000A0050F40060ADF80A00DFF8D42C0021BC
:101FD0007C200EF0F9FC1BE0DFF8B4090078022148
:101FE00090FBF1F202FB11021500ADB2002D06D1FB
:101FF000DFF8B02C00217C200EF0E6FC08E0ADB24A
:10200000012D05D1DFF8B02C00217C200EF0DCFC86
:10201000DFF81C0D0299016005B030BD257300008A
:1020200000000408F86E0020FA6E00206C71002099
:10203000D06C002032B582B00400BDF808004FF625
:10204000FF71884212D1DFF8741CDFF83C090DF0F3
:10205000C5FB00200190DFF8B8050090DFF82839B3
:102060000022902146200DF0D3FBA3E0BDF808002C
:10207000C0F3803080B2002814D002200AF0E9FCBE
:102080000100DFF804090DF0A9FB00200190DFF842
:1020900080050090DFF8F0380022902146200DF0F6
:1020A000B7FB13E001200AF0D4FC0100DFF8D808E8
:1020B0000DF094FB00200190DFF854050090DFF84C
:1020C000C8380022902146200DF0A2FBBDF8080080
:1020D000C0F3800080B200286CD0BDF80800C0F3C7
:1020E000402080B2002816D0DFF8EC0A01210170F0
:1020F000DFF89C080078052190FBF1F201FB12004B
:102100000500ADB24020DFF86C1C00FB0512002179
:102110006C200EF0A2FCBDF80800C0F3C01080B225
:10212000002833D0BDF8080080B2C00B80B2002870
:1021300016D0DFF8A40A01210170DFF854080078F6
:10214000042190FBF1F202FB11021500ADB2DFF8A1
:10215000280C10EB451200217C200EF035FC15E018
:10216000DFF8740A01210170DFF8240800780521E6
:1021700090FBF1F201FB12000500ADB2DFF8FC0BA1
:1021800010EB451200217C200EF01EFCBDF808006B
:10219000C0F34020C0070DD4BDF80800000409D4E6
:1021A000BDF80800C0F3C010C00703D4DFF8280A48
:1021B0000021017037BD0000386C002010B588B0D8
:1021C000002101A808F0C6FC002803D09DF80400F7
:1021D000040001E00120040000F084F8DFF870053D
:1021E0000078C0F34000C0B200280AD0DFF86405D0
:1021F0000068ADF800000099E4B2200080B200F061
:1022000013F803A98B48006807F0A5FDBDF810007E
:10221000002804D10121DFF8EC030DF055F808B0D7
:1022200010BD0000F051002003B400210091BDF862
:102230000410C1F3002189B2002906D0BDF80010B6
:1022400051F40041ADF8001005E0BDF8021051F066
:102250001001ADF80210BDF8041089B2C90B89B2A3
:10226000002906D0BDF8021051F48051ADF80210DB
:1022700029E0BDF80410C1F3403189B2002906D02D
:10228000BDF8021051F48061ADF802101BE0BDF8FA
:102290000410C1F3803189B2002907D0BDF80210C3
:1022A0004FF2FF721140ADF802100CE0BDF80410BF
:1022B000C1F3003189B2002905D0BDF8021051F4F4
:1022C0000061ADF80210DFF8681A009A0A6002B0E7
:1022D000704700000B720020A0140020F86F00204F
:1022E000385400202DE9F043ADB01CA951480068D6
:1022F00007F031FD17A9DFF8500C006807F02BFD3F
:1023000000A9DFF8440C006807F04FFB06009DF8B9
:102310000000002840F06E811822310009A806F064
:102320004DFD9DF82700172880F264819DF8250057
:10233000032840F05F81DFF8140C0088401EDFF8AE
:102340000C1C08809DF83500002840F05181F07881
:1023500081465FFA89F9C420AB4900FB09100700E8
:10236000002F00F04C810A98396E884217D19DF8F1
:10237000240097F85C10884211D19DF8250097F849
:102380005D1088420BD19DF8270097F85F108842B6
:1023900005D197F8940010F0010000280CD097F8B0
:1023A000940010F0FD0087F8940097F8940010F066
:1023B000FE0087F894001DE107F27E00804697F842
:1023C000940050F0020087F8940097F8940050F0C1
:1023D000040087F8940017F128000500DFF8700B5F
:1023E0000078002800F08580D7F8990010F47C0F61
:1023F00043D0288C02281FD11222414604A806F09F
:10240000DDFC04980DF074F8A860DDF81A000DF0FA
:102410006FF82861DDF816000DF06AF8E860DDF865
:102420001E000DF065F82860BDF814000DF056F898
:10243000A880DFE0887100200C22414601A806F048
:10244000BDFCBDF8040080B20DF048F8A860BDF8EE
:102450000A0080B20DF042F82861BDF8080080B291
:102460000DF03CF8E86003980DF042F82860BDF8E4
:1024700006000DF033F8A880BCE0288C02281FD19C
:10248000D8F800000DF034F8A86078682C3004000B
:102490002C22DFF8C00A011921A806F08FFCB7F83A
:1024A0009D0080B2BDF98C1010EB0140E860B7F8D8
:1024B0009F0080B2BDF98E1010EB0140286199E0B9
:1024C000B8F800000DF00AF8A860B7F99D0080B2D6
:1024D000E860B7F99F0080B2286195F826000A28C5
:1024E00040F0888097F85C20396838000BF0A7F836
:1024F00080E0F86810F47C0F41D0288C02281DD1B0
:102500001222414604A806F059FC04980CF0F0FF92
:10251000A860DDF81A000CF0EBFF2861DDF816006A
:102520000CF0E6FFE860DDF81E000CF0E1FF28602B
:10253000BDF814000CF0D2FFA8805BE00C224146ED
:1025400001A806F03BFCBDF8040080B20CF0C6FF09
:10255000A860BDF80A0080B20CF0C0FF2861BDF889
:10256000080080B20CF0BAFFE86003980CF0C0FFDE
:102570002860BDF806000CF0B1FFA8803AE0288C76
:1025800002281DD1D8F800000CF0B2FFA8607868CE
:10259000203004002022DFF8BC0901190FA806F042
:1025A0000DFC388A80B2BDF9441010EB0140E860A0
:1025B000788A80B2BDF9461010EB0140286119E01D
:1025C000B8F800000CF08AFFA860B7F9100080B2DC
:1025D000E860B7F9120080B2286195F826000A2851
:1025E00008D197F85C20396838000BF028F801E032
:1025F0000EF00AFB9DF8000000283FF481AE2DB0DC
:10260000BDE8F083DC130020C8030020AC030020E9
:10261000A4030020B4030020F2B50400250000202C
:10262000060000A928000EF0ABF90700002F0CD01F
:10263000781C05003E009DF800000A2803D09DF894
:1026400000000D2800D100E0EBE73000F2BD2DE9DD
:10265000FF41040000A8DFF8001910220EF0E6FA8E
:102660000020070000200500002080461FFA88F89F
:10267000B8F10D0F26D21FFA88F800A818F800103C
:102680002000FFF7C9FF0600B54218D235001FFA37
:1026900088F8B8F1000F0DD11FFA88F800A818EBE0
:1026A000000041782000FFF7B7FF0600B54206D2D0
:1026B000350007E01FFA88F8B8F1010F02D018F1D1
:1026C0000108D3E700200700002D01D0281B0700D8
:1026D000BFB2380004B0BDE8F0812DE9F0418AB006
:1026E000040000A8DFF8741824220EF09FFA0020DE
:1026F000070000200500002080461FFA88F8B8F186
:10270000240F13D21FFA88F800A818F80010200030
:10271000FFF782FF0600B54205D23000FFF797FFB2
:10272000002800D1350018F10108E6E70020070075
:10273000002D01D0281B0700BFB238000AB0BDE849
:10274000F081000084A60308C49B0308A49B03082F
:10275000701400200C140020EC71002034150020AF
:10276000D0140020321500202DE9F14F8AB00C0062
:102770000A988246BAF1000F01D10020FDE05046D0
:102780000EF006F983460020070000208046002056
:1027900081461FFA8BFBBBF1000F00F0D880BFB25F
:1027A000082F00F0D4809AF80000202803D11AF1F5
:1027B000010ABBF1010B1FFA8BFBBBF1100FC0F23A
:1027C00084801022514603A806F0F8FA00208DF804
:1027D0001C000020060003A8FFF739FF0500002DAC
:1027E0000AD103A8285C0A2806D1681C0600BBEBA6
:1027F000060B1AF1010ACCE70B2D10D303A8285CB5
:102800000A280CD003A8285C0D2808D0681C0600F4
:10281000B6B203A800213154BBEB060B7DE003A840
:10282000285C0A2849D003A8285C0D2845D09DF8CB
:102830001A008DF8080000208DF81A0003A8FFF791
:102840004CFF05009DF808008DF81A00002D21D0DE
:1028500003A8281810F8010C20280DD0681C0600C9
:10286000B6B203A82D213154B6B203A83018002106
:102870004170BBEB060B50E0A81C0600B6B203A8E3
:102880002D213154B6B203A8301800214170BBEBA2
:10289000060B42E003A8FFF7DAFE0500002D07D083
:1028A000681C060003A800212954BBEB060B34E08A
:1028B000BBF10F0B0F2006002FE0681C060003A8D9
:1028C00000212954BBEB060B27E01FFA8BFB5A466D
:1028D000514603A806F072FA03A8FFF7B8FE0500F8
:1028E000002D09D103A8285C0A2805D1681C060020
:1028F000BBEB060B1AF1010A1FFA8BFB5A46514635
:1029000003A806F05BFA1FFA8BFB03A800210BF863
:1029100000100020834601208146B6B216EB0A0A59
:1029200018F10108A4B21FFA88F84445BFF431AF8A
:1029300000200190DFF82806009003AB0022BFB210
:102940003801C11C05200CF063FF7F1C21E71FFA32
:1029500089F9B9F1000F05D1DFF808268721412058
:102960000EF032F8A4B2002C05D0DFF8FC25872148
:102970004B200EF029F8484680B20BB0BDE8F08F2E
:10298000EE7100205471002010660020F0710020CC
:1029900068710020F27100202DE9F04784B0040036
:1029A0000020804601208146002082460120070049
:1029B00000200600012008F0DCFE02AA0021DFF85A
:1029C000AC05006807F060FA002009F06FF8050018
:1029D000EDB2280002280AD003280DD004281FD009
:1029E00007280ED008280CD009281FD02AE0B6B23C
:1029F000002E00D0761E25E0BFB2002F00D1761C3D
:102A000020E098F001085FFA88F8B8F1010F03D1CF
:102A1000CA460020814602E0D1460020824611E0ED
:102A20002079032801D1002062E00BE02079002802
:102A300008D15FFA89F9B9F1000F01D1002057E000
:102A4000012055E005F037FB82239D22032102205F
:102A50000DF0CAFA310089B22068FFF785FE070041
:102A6000207900281ED1082009F0F3FF00210191F0
:102A7000DFF8EC14009103004A46D2B29021822084
:102A80000CF0C6FE092009F0E4FF030000200190CD
:102A9000DFF8CC0400905246D2B290210A200CF00C
:102AA000B7FE18E0207903280ED10A2009F0D1FFE3
:102AB00000210191DFF8A814009103000122902168
:102AC00000200CF0A5FE06E02079022803D10DF0CD
:102AD0007EFC00200CE00DF07AFCFFF76FFB207904
:102AE00001287FF467AF40F6B83007F095FC00206E
:102AF00004B0BDE8F0870000049B0308E49A0308D3
:102B0000D4930308549403081CB5040000940120D6
:102B10008DF8040000A8FFF73FFF16BD1CB50400A8
:102B2000009403208DF8040000A8FFF735FF16BDC0
:102B30001CB50400009400208DF8040000A8FFF7E5
:102B40002BFF16BD70B5040003200600DFF820043B
:102B50000078DFF8201411EBC00005003200D2B27B
:102B6000DFF80C040178DFF80C0403F00DFFA4B2C9
:102B70002000022816D0032806D007281FD00828D6
:102B800023D0092825D025E0DFF8E4030078711E62
:102B9000884206D2DFF8D8030078401CDFF8D01353
:102BA000087017E0DFF8C8030078002806D0DFF8C7
:102BB000C0030078401EDFF8B81308700AE06868A8
:102BC000002801D06868804704E0062008F020FE55
:102BD00000E0FFE770BD000009720020B495030813
:102BE00054950308F8B504000D0016001F00DFF827
:102BF00060030078002826D02C22DFF858038119C2
:102C000014F1950006F0DAF82560666084F8927099
:102C100094F8940050F0010084F8940094F8940023
:102C200010F0FD0084F8940094F8940010F0FB007C
:102C300084F8940094F8940050F0080084F894000C
:102C40000020206725E02022DFF80803811914F115
:102C5000080006F0B3F82560666084F8927094F876
:102C6000940050F0010084F8940094F8940010F05F
:102C7000FD0084F8940094F8940010F0FB0084F8B0
:102C8000940094F8940050F0080084F89400002018
:102C90002067F1BD649A0308849A030854930308DB
:102CA000249B0308A49A030880B54FF49352002193
:102CB000B1480DF053FA01BDC49A03089CA403085F
:102CC00038B50400A2480078002817D0002005007D
:102CD000ADB2082D2BDAADB2A4B2A54227D2202284
:102CE000ADB2A64850F825009A490918ADB2A448DB
:102CF00010EB451006F062F86D1CE9E700200500B6
:102D0000ADB2082D13DAADB2A4B2A5420FD214228F
:102D1000ADB29C4850F825008E490918ADB2142078
:102D2000994B00FB053006F049F86D1CE8E731BD12
:102D30004C710020F8B504000D008548007800288B
:102D40000BD027002022ADB28C4850F825008149D5
:102D50000918380006F032F80AE026001422ADB255
:102D6000884850F825007B490918300006F026F8FD
:102D7000F1BD0000048C0308D49403082C920308CE
:102D80002DE9F04F83B004000D0016001F007048BD
:102D90000078002822D00194A84600208346BBF189
:102DA000640F3ED25B469BB232004146019803F06D
:102DB00045FD824698F80000FFB2B8420BD1BAF147
:102DC000000F08D0B8F80400C0F3C20080B2012898
:102DD00001D0504626E01BF1010BE0E70094A94624
:102DE00000208346BBF1640F1BD25B469BB23200CE
:102DF0004946009803F022FD824699F80000FFB290
:102E0000B8420BD1BAF1000F08D0B9F80600C0F3F0
:102E1000C20080B2012801D0504603E01BF1010B33
:102E2000E0E70020BDE8FE8F2DE9F74F84B01D00DC
:102E3000109C47480078002824D004980600059884
:102E400002900698804600208346308A83453ED211
:102E5000BBF1640F3BD2584680B200902B00424633
:102E60000299300003F01EFD824698F80100E4B29A
:102E7000A04204D1BAF1000F01D0504628E01BF166
:102E8000010BE2E704980700059801900698814637
:102E900000208346788B834519D2BBF1640F16D28C
:102EA000584680B200902B004A460199380003F042
:102EB000F9FC824699F80100E4B2A04204D1BAF1CB
:102EC000000F01D0504603E01BF1010BE2E70020A8
:102ED00007B0BDE8F08F38B50400A4B2B4F5C05F08
:102EE00031D14FF4C05005F05BFD00282BD02748AE
:102EF00000210180254800214180002005000A2D85
:102F000019DA1820224900FB0510002181831820BE
:102F10001F4900FB05100021018418201C4900FBFB
:102F20000510002101831820194900FB051000211C
:102F300081856D1CE3E7052008F06AFC00214FF451
:102F4000C05005F05DFD31BD8C710020E87100209E
:102F50000872002000000408F0A003081899030874
:102F6000A4030020A49B0308C49B030898710020BD
:102F70005871002054030020C8030020F062002094
:102F800028230020D05F0020283C0020647100200E
:102F9000F05100202DE9F44FADF56E7D04000D00D9
:102FA0001E000020ADF810002800C0B2FDF76AF93D
:102FB000B346DFF8640CD0F81801002840F0038114
:102FC000DFF8580C007800282FD08022DFF8180E88
:102FD0008119DFF8180E05F0F1FE7C21DFF80C0EE8
:102FE00005F088FEADF80C00BDF80C00DFF8281CD9
:102FF000D1F84012884248D0DFF8F40D90F84C0028
:10300000022803DB022008F003FC0CE0DFF8E40DEB
:10301000FFF78EFD002806D0DFF8DC0D00680121E7
:10302000018207F04DFE01F0BFBE9622DFF8B80D19
:103030008119DFF8C80D05F0C1FE9221DFF8BC0D43
:1030400005F058FEADF80C00BDF80C00DFF8C81B09
:10305000D1F8B611884218D0DFF8940D90F84C00E2
:10306000022803DB022008F0D3FB0CE0DFF8840D1C
:10307000FFF75EFD002806D0DFF87C0D0068012117
:10308000018207F01DFE01F08FBEDFF8900B007883
:1030900000283CD0DFF8800B08F0D6FEDFF8F00DFA
:1030A0000078012819D1DFF8700B408A8146012091
:1030B00000904B469BB2DFF8380DB0F84620310047
:1030C000DFF8280D02F06EFADFF84C1BC1F80C0196
:1030D000DFF8441BC1F8140155E0DFF83C0B408ACF
:1030E0008146002000904B469BB2DFF8040DB0F8FB
:1030F00046203100DFF8F40C02F054FADFF8181B18
:10310000C1F80C01DFF8101BC1F814013BE0DFF837
:10311000080B08F099FEDFF8780D0078012819D126
:10312000DFF8F40A408A8146012000904B469BB2AA
:10313000DFF8BC0CB0F846203100DFF8C00C02F01C
:1031400031FADFF8D41AC1F80C01DFF8CC1AC1F853
:10315000140118E0DFF8C00A408A81460020009080
:103160004B469BB2DFF8880CB0F846203100DFF800
:103170008C0C02F017FADFF8A01AC1F80C01DFF886
:10318000981AC1F81401DFF8900AD0F8140180B23F
:10319000FFF796FD00208246BAF1170F09D2C4202E
:1031A000DFF8F01C00FB0A10C0F878A01AF1010A41
:1031B000F2E7DFF8640A0121C0F81811DFF8580AB5
:1031C0000021C0F81C11DFF8500AD0F81C010028BB
:1031D00040F00881DFF8440A0078002800F0808081
:1031E0002C2332001BA9DFF8040CFFF7C9FD0028CF
:1031F00000F0F38000200090330010AA1BA9DFF834
:10320000EC0BFFF711FEDFF8901C086000282BD0B4
:10321000DFF8880C0570DFF8880C06602C2210A9F6
:10322000DFF8800C05F0CAFDDFF87C0C1521016089
:10323000DFF8780C007810F0FD00DFF8701C0870E3
:10324000DFF8680C007810F0FB00DFF8601C0870F5
:10325000DFF8580C007850F00100DFF8501C0870BF
:10326000DFF84C0C0021016002200090330010AA0E
:103270001BA9DFF8780BFFF7D7FDDFF8381C0860D3
:10328000002800F0AA80DFF8300C0570DFF8EC0DA4
:1032900006602C2210A9DFF8E80D05F08FFDDFF89D
:1032A000E40D16210160DFF8E00D007810F0FD005C
:1032B000DFF8D41D0870DFF8D00D007810F0FB00A7
:1032C000DFF8C41D0870DFF8C00D007850F0010071
:1032D000DFF8B41D0870DFF8B40D002101607CE058
:1032E0002C23320006A9DFF8140BFFF749FD002854
:1032F00073D000200090330023AA06A9DFF8FC0A4F
:10330000FFF792FDDFF8901B086000282BD0DFF854
:103310008C0B0570DFF8880B0660202223A9DFF8EC
:10332000700D05F04BFDDFF8800B15210160DFF813
:103330007C0B007810F0FD00DFF8701B0870DFF8E0
:103340006C0B007810F0FB00DFF8601B0870DFF8F2
:103350005C0B007850F00100DFF8501B0870DFF8BC
:10336000500B0021016002200090330023AA06A91F
:10337000DFF8880AFFF758FDDFF8381B08600028DF
:103380002BD0DFF8340B0570DFF8F00C066020223C
:1033900023A9DFF8000D05F011FDDFF8E80C162178
:1033A0000160DFF8E40C007810F0FD00DFF8D81CB5
:1033B0000870DFF8D40C007810F0FB00DFF8C81CB0
:1033C0000870DFF8C40C007850F00100DFF8B81C7A
:1033D0000870DFF8B80C00210160DFF83C0801211B
:1033E000C0F81C11DFF83008D0F80C01002809D112
:1033F0004FF412720021DFF820080CF0AFFE01201C
:10340000ADF81000BDF81000002829D0DFF8E00961
:1034100090F84C00022802DB022008F0F9F9DFF8EE
:10342000D80900680121018207F04AFCDFF8E807AB
:103430000021C0F81811DFF8580A00218170DFF868
:10344000500A00210170DFF8500CFFF75DFB0620E9
:1034500008F0DEF9DFF8440C0021018001F0A4BC83
:103460000020ADF80E0009F06EFB00280DD1A4B2CB
:10347000052C02D0A4B2062C03D10020ADF80E001A
:1034800001E0ADF80E4000200400A4B220000128A5
:1034900001F02280022800F0388103280DD0042892
:1034A00000F09287072800F0E781082800F03E85A9
:1034B000092800F07D8701F017B9DFF85C07008864
:1034C000DFF85417D1F81411491E884280F01B818F
:1034D000DFF844070088401CDFF83C170880DFF85D
:1034E0003807B0F8080100286ED1DFF82C070089F2
:1034F000072811DADFF820070089DFF81C17D1F858
:103500001411491E884207D2DFF80C070089401CBD
:10351000DFF804170881F6E0DFF8FC06D0F81401A4
:10352000082807D2DFF8F006D0F81401401EADF8E5
:10353000080002E00720ADF80800DFF8DC0600888C
:10354000DFF8D416D1F81411884200F0DC80DFF8DF
:10355000CC06007800281BD04FF48072DFF8401BA7
:10356000DFF8400B05F02AFC2022DFF8AC060088CB
:10357000DFF8341B51F82000DFF86C180918BDF88B
:103580000800DFF8203B13EB401005F017FCBAE011
:10359000A022DFF8181BDFF8180B05F00FFC14222F
:1035A000DFF874060088DFF80C1B51F82000DFF804
:1035B00038180918BDF808001423DFF8F4CA03FB13
:1035C00000C005F0FBFB9EE0DFF84C06B0F80801F8
:1035D000012840F09880DFF840060089032811DABE
:1035E000DFF834060089DFF83016D1F81411491ECF
:1035F000884207D2DFF820060089401CDFF8181641
:10360000088180E0DFF810060088DFF80C16D1F89A
:103610001411884277D0DFF804060078002810D013
:103620002B00DBB2DFF8F0050088DFF88C1A51F8C8
:1036300020205946DFF8E005D0F8BC01FFF7D2FAA8
:103640000FE02B00DBB2DFF8D0050088DFF86C1A42
:1036500051F820205946DFF8C005D0F8BC01FFF72B
:10366000C1FADFF8B405D0F8BC0190F8940050F02E
:103670000100DFF8A415D1F8BC1181F89400DFF83F
:103680009805D0F8BC0190F8940010F0FD00DFF828
:103690008815D1F8BC1181F89400DFF87C05D0F8CA
:1036A000BC0190F8940010F0FB00DFF86C15D1F825
:1036B000BC1181F89400DFF86005D0F8BC01DFF898
:1036C000141E884219D2DFF85005D0F8BC01DFF88B
:1036D0004815D1F81411C422DFF8B83702FB0131C4
:1036E000C439884209D2DFF83005D0F8BC01C430B3
:1036F000DFF82415C1F8BC0105E0DFF81C05DFF890
:103700009417C0F8BC1100F0EFBFDFF80C0500887B
:10371000002800F0AF80DFF800050088401EDFF8C9
:10372000F8140880DFF8F0040089002807D0DFF8DB
:10373000E8040089401EDFF8E01408819AE0DFF811
:10374000D804B0F80801002850D1DFF8D004007880
:10375000002824D007208246BAF1000F0FD0202283
:10376000DFF8400910EB4A10B0F12001DFF834090E
:1037700010EB4A1005F022FBBAF1010AECE7202217
:10378000DFF894040088DFF8201951F82000DFF8F2
:1037900058160918DFF80C0905F010FB6AE007203D
:1037A0008246BAF1000F11D014221420DFF800195C
:1037B00000FB0A10B0F114011420DFF8F43800FB0C
:1037C0000A3005F0FBFABAF1010AEAE71422DFF841
:1037D00048040088DFF8DC1851F82000DFF80816EC
:1037E0000918DFF8CC0805F0E9FA43E0DFF828040F
:1037F000B0F8080101283DD1DFF89806DFF8181469
:10380000D1F8BC11884209D2DFF80C04D0F8BC0111
:10381000C438DFF80414C1F8BC0105E0DFF8F80390
:10382000DFF8B01CC0F8BC11DFF8F0030078002806
:1038300010D02B00DBB2DFF8E0030088DFF8781847
:1038400051F820205946DFF8D003D0F8BC01FFF72B
:10385000C9F90FE02B00DBB2DFF8BC030088DFF80A
:103860005C1851F820205946DFF8AC03D0F8BC01B1
:10387000FFF7B8F900F038BFDFF89C03B0F8080193
:10388000002840F05283DFF8900300898246DFF879
:103890008C030078002800F07581DFF8080810EB31
:1038A0004A108088C0F3C20080B2042816D1DFF825
:1038B000DC0DEDB24580DFF860030088DFF8E81723
:1038C00051F82000DFF8C41D8860DFF8C00DC0F893
:1038D00004B0082007F09CFF01F066BADFF8C407C7
:1038E00010EB4A108088C0F3C20080B207281ED1B6
:1038F000DFF89C050078012819D0DFF8E80DEDB25B
:103900000580C5480088DFF8A01751F82000DFF8CF
:10391000D41D8860DFF8CC0DC0F804B0DFF8C40D0A
:1039200000218186092007F073FF01F03DBADFF81E
:10393000740710EB4A108088C0F3C20080B20128DF
:1039400040F0A080B44880891821B34A01FB0020D0
:10395000B14989888183B04880891821AE4A01FB2A
:103960000020AD4909890184AB4880891821AA4A01
:1039700001FB0020A84909880183A74880891821F4
:10398000A54A01FB0020A449C9898185A2488089F4
:10399000401CA1498881A0480088DFF8F01D31F85B
:1039A00010009D49C8819C48C0899B49898918227B
:1039B000994B02FB0131898D88421BD19648808941
:1039C0001821954A01FB0020808B934988809248FA
:1039D00080891821904A01FB0020008C8E490881C3
:1039E0008D48808918218C4A01FB0020008B8A4970
:1039F000088008E0884800218180874800210181F3
:103A00008548002101808448C0898146DFF8800410
:103A10000078012813D1012000904B469BB2DFF8BB
:103A2000D003B0F846203100DFF8C00301F0BAFD42
:103A30007949C1F80C017849C1F8140112E000205D
:103A400000904B469BB2DFF8A803B0F84620310047
:103A5000DFF8980301F0A6FD6F49C1F80C016E492B
:103A6000C1F814016C48D0F8140180B2FFF728F9AE
:103A700069480289684801886748D0F8140108F04D
:103A80000FFA52E2DFF80804007801280ED1D84876
:103A9000B0F846305A46DFF80C0610EB4A11D3480E
:103AA00001F054FF5C49C1F810010DE0D048B0F8B6
:103AB00046305A46DFF8EC0510EB4A11CB4802F0CD
:103AC0008FF85549C1F810015348D0F8100100286B
:103AD00000F02B82DFF8CC0510EB4A104E49C1F8FC
:103AE000440200208246BAF1040F15D24A48D0F8A9
:103AF0001001824510D22B00DBB2DFF8BC0550F874
:103B00002A205946C420DFF88CC300FB0AC0FFF707
:103B100069F81AF1010AE6E700208246BAF1170FA8
:103B200008D2C420DB4900FB0A10C0F878A01AF1C3
:103B3000010AF3E73848D749C0F8BC113648D549DF
:103B4000C0F8C011344834498988C18032483249AC
:103B50000989418130483049098841802E48012136
:103B6000A0F808112C48002181802B4800210181F8
:103B700029480021018028482749D1F81011C0F8B0
:103B80001411D2E11420DFF8281500FB0A10C088B8
:103B9000C0F3C20080B2042815D1DFF8F00AEDB2FC
:103BA00045801D480088DFF80C1551F82000DFF82B
:103BB000DC1A8860DFF8D40AC0F804B0082007F0E7
:103BC00027FE01F0F1B81420DFF8E41400FB0A101E
:103BD000C088C0F3C20080B2072821D1AC48007869
:103BE00001281DD0DFF8FC0AEDB205800A480088E4
:103BF000DFF8C01451F82000DFF8E81A8860DFF819
:103C0000E40AC0F804B0DFF8DC0A0021818609204C
:103C100007F0FEFD01F0C8B8F05100200872002046
:103C20001420DFF88C1400FB0A10C088C0F3C20017
:103C300080B2012840F0C380DFF8880B808918210A
:103C4000DFF8802B01FB0020DFF8781B8988818357
:103C5000DFF8700B80891821DFF8682B01FB00204A
:103C6000DFF8601B09890184DFF8580B808918216F
:103C7000DFF8502B01FB0020DFF8481B0988018387
:103C8000DFF8400B80891821DFF8382B01FB00207A
:103C9000DFF8301BC9898185DFF8280B8089401C3B
:103CA000DFF8201B8881DFF81C0B0088DFF8DC1AA6
:103CB00031F81000DFF80C1BC881DFF8080BC08951
:103CC000DFF8001B89891822DFF8F83A02FB01317E
:103CD000898D884224D1DFF8EC0A80891821DFF829
:103CE000E42A01FB0020808BDFF8D81A8880DFF8F7
:103CF000D40A80891821DFF8CC2A01FB0020008C2F
:103D0000DFF8C01A0881DFF8BC0A80891821DFF8C3
:103D1000B42A01FB0020008BDFF8A81A08800BE012
:103D2000DFF8A00A00218180DFF8980A00210181D4
:103D3000DFF8900A00210180DFF8880AC0898146F7
:103D400053480078012813D1012000904B469BB2C4
:103D50002748B0F846203100284801F023FCDFF85E
:103D6000641AC1F80C01DFF85C1AC1F8140112E002
:103D7000002000904B469BB21D48B0F84620310011
:103D80001E4801F00FFCDFF83C1AC1F80C01DFF807
:103D9000341AC1F81401DFF82C0AD0F8140180B2EB
:103DA000FEF78EFFDFF81C0A0289DFF8180A018887
:103DB000DFF8100AD0F8140108F072F8B5E03448C2
:103DC000007801281CD10A48B0F846305A46142021
:103DD000B74900FB0A11094801F0B8FDDFF8E41902
:103DE000C1F810011DE000BF00000408B45300201A
:103DF000486E0020E49B03085071002014530020FB
:103E0000DFF89C0DB0F846305A461420A84900FB54
:103E10000A11DFF8900D01F0E3FEDFF8A819C1F8F0
:103E20001001DFF8A009D0F81001002846D01420B6
:103E30009F4900FB0A10DFF88C19C1F8200100200F
:103E40008246BAF1040F15D2DFF87809D0F81001D4
:103E500082450FD22B00DBB2984850F82A205946F1
:103E6000C420DFF830C000FB0AC0FEF7BBFE1AF129
:103E7000010AE6E700208246BAF1170F1ED2C420DD
:103E8000044900FB0A10C0F878A01AF1010AF3E710
:103E900054710020C8030020E01300206E1400209D
:103EA000DC13002071140020541400207014002032
:103EB0004C140020A414002032150020DFF804095F
:103EC000DFF8E01DC0F8BC11DFF8F808DFF8D41DFA
:103ED000C0F8C011DFF8EC08DFF8E8188988C18065
:103EE000DFF8E008DFF8DC1809894181DFF8D40841
:103EF000DFF8D01809884180DFF8C8080121A0F850
:103F00000811DFF8C00800218180DFF8B80800211F
:103F10000181DFF8B00800210180DFF8A808DFF890
:103F2000A418D1F81011C0F81411DDE3DFF89408DB
:103F3000B0F80801012840F02281DFF888084088A5
:103F4000DFF880180880DFF87C08DFF87818C98867
:103F50008180DFF87008DFF86C1849890181DFF88B
:103F600064080021A0F80811DFF8D80D00780028B7
:103F70005CD000208246BAF1040F22D2C420DFF8C0
:103F8000241D00FB0A1090F8940010F0FD00C421DD
:103F9000DFF8102D01FB0A2181F89400C420DFF81E
:103FA000041D00FB0A1090F8940050F00100C42199
:103FB000DFF8F02C01FB0A2181F894001AF1010AC4
:103FC000D9E7DFF80008C0898146DFF8E40D007802
:103FD000012815D1012000904B469BB2DFF8C00BA1
:103FE000B0F846203100DFF8CC0D01F0DBFADFF845
:103FF000D417C1F80C01DFF8CC17C1F8140193E015
:10400000002000904B469BB2DFF8940BB0F846209E
:104010003100DFF8A00D01F0C5FADFF8A817C1F8EC
:104020000C01DFF8A017C1F814017DE000208246E2
:10403000BAF1040F44D2C420DFF8681C00FB0A1058
:1040400090F8940010F0FD00C421DFF8582C01FB1B
:104050000A2181F89400C420DFF8481C00FB0A10F4
:1040600090F8940050F00100C421DFF8382C01FBD7
:104070000A2181F894001AF1010AD9E7A01400205E
:1040800035150020181500203415002010150020CB
:10409000E4130020A8140020CC9F0308F86E002031
:1040A0004823002028230020F06200203C3C002010
:1040B000283C0020D05F0020806400206061002048
:1040C000DFF80007C0898146DFF8E40C007801289A
:1040D00015D1012000904B469BB2DFF8C40AB0F81E
:1040E00046203100DFF8BC0A01F05CFADFF8D41694
:1040F000C1F80C01DFF8CC16C1F8140114E000205F
:1041000000904B469BB2DFF8980AB0F84620310089
:10411000DFF8900A01F046FADFF8A816C1F80C01A2
:10412000DFF8A016C1F81401DFF89806D0F81401E2
:1041300080B2FEF7C5FDDFF88C06D0F81401DFF879
:104140008416D1F80C1188420CD1DFF87806028968
:10415000DFF870060188DFF86C06D0F8140107F06C
:104160009FFE24E1DFF85C0600210180DFF85406A1
:1041700000218180DFF84C060021018117E1DFF882
:104180004406B0F80801002840F0EB80DFF8340660
:104190008089002800F0E580DFF828068089182152
:1041A000DFF8202601FB0020DFF8181689888183BC
:1041B000DFF8100680891821DFF8082601FB0020AF
:1041C000DFF8001609890184DFF8F80580891821D5
:1041D000DFF8F02501FB0020DFF8E81509880183EE
:1041E000DFF8E00580891821DFF8D82501FB0020E1
:1041F000DFF8D015C9898185DFF8C8058089401EA0
:10420000DFF8C0158881DFF8BC0580891821DFF848
:10421000B42501FB0020808DDFF8A815C881DFF8E8
:10422000A40580891821DFF89C2501FB0020008B64
:10423000DFF890150880DFF88C0580891821DFF8F9
:10424000842501FB0020808BDFF878158880DFF85B
:10425000740580891821DFF86C2501FB0020008C93
:10426000DFF860150881DFF85C05C0898146DFF85A
:10427000D40A0078002830D0DFF8340B0078012809
:1042800015D1012000904B469BB2DFF81409B0F81D
:1042900046203100DFF81C0B01F084F9DFF824150B
:1042A000C1F80C01DFF81C15C1F8140145E000202D
:1042B00000904B469BB2DFF8E808B0F8462031008A
:1042C000DFF8F00A01F06EF9DFF8F814C1F80C011C
:1042D000DFF8F014C1F814012FE0DFF8D40A0078F9
:1042E000012815D1012000904B469BB2DFF8B008A1
:1042F000B0F846203100DFF8AC0801F053F9DFF8E0
:10430000C414C1F80C01DFF8BC14C1F8140114E0A6
:10431000002000904B469BB2DFF88408B0F846209E
:104320003100DFF8800801F03DF9DFF89814C1F89A
:104330000C01DFF89014C1F81401DFF88804D0F8FC
:10434000140180B2FEF7BCFCDFF878040289DFF8C4
:1043500074040188DFF86C04D0F8140107F0A0FDA4
:1043600025E0DFF84C0A0078002812D1DFF8300889
:1043700090F84C00022803DB022007F049FA02E023
:10438000062007F045FADFF8FC0A0021018000F062
:104390000BBDDFF81C0A0078012808D1DFF8100AED
:1043A00000210170052007F033FA00F0FDBC9BE10D
:1043B000DFF81004B0F80801012804D1DFF8040484
:1043C0000221A0F808118FE100208246DFF8F403F3
:1043D000B0F8080101282CD10CF054FC0700DFF8DC
:1043E00064090078002806D0DFF89C1A380000F035
:1043F000BDFE804606E0FA8BDFF88C1A300000F034
:10440000DDFE80461FFA88F8DFF87C0A002108F8F4
:1044100000101FFA88F8B8F1000F04D0DFF8680A1E
:10442000FEF77CFB54E00B2008F01EFBFEF776FB4A
:104430004EE0DFF89003B0F8080100282AD1DFF839
:1044400004090078002843D1DFF87803008914219B
:10445000DFF8382A01FB00208289DFF82C1A3000AF
:1044600000F0ACFE80461FFA88F8DFF81C0A002135
:1044700008F800101FFA88F8B8F1000F04D0DFF830
:10448000080AFEF74BFB23E00B2008F0EDFAFEF7DD
:1044900045FB1DE0DFF818090078012818D1DFF886
:1044A000100900218170DFF8080900210170C5485A
:1044B0000021A0F80811C3480021C0F818110422F7
:1044C0000021DFF8A40C0BF049FE032007F0A0F94F
:1044D0000AE100BF14060020BA48B0F8080100281D
:1044E00040F0DC80DFF8C8080078012800F0D680B2
:1044F000DFF850080078002867D005A809F082FC92
:10450000002800F0EE80DFF89806B0F84600019031
:10451000EDB200953300DFF89C2805A9BDA809F08D
:10452000E3FD00284BD04FF41272A6492BA804F0EB
:1045300045FCDFF86C06B0F846000190EDB200953E
:1045400000234A4692B23100BDA809F051FFADF8F0
:104550000800BDF80800002840F0C3804FF4127234
:104560002BA9984804F02AFC142008F07DFAFEF7E5
:10457000CBFA9448C0898146002000904B469BB2FC
:10458000DFF81C06B0F846203100DFF8280801F0FB
:1045900009F88C49C1F80C018A49C1F8140189480D
:1045A000D0F8140180B2FEF78BFB8648028985485B
:1045B00001888448D0F8140107F072FC91E01420BF
:1045C00008F052FAFEF7A0FA8BE005A809F01AFCF1
:1045D000002800F08680DFF8C805B0F8460001909A
:1045E000EDB200953300DFF8BC2505A9BDA809F0A0
:1045F0007BFD00284CD04FF4127272492BA804F0B6
:10460000DDFBDFF89C05B0F846000190EDB20095A7
:1046100000234A4692B23100BDA809F0E9FEADF888
:104620000800BDF8080000285BD14FF412722BA9D6
:10463000644804F0C3FB142008F016FAFEF764FA8D
:104640006048C0898146002000904B469BB2DFF84D
:104650005005B0F846203100DFF8480500F0A2FF11
:104660005849C1F80C015749C1F814015548D0F810
:10467000140180B2FEF724FB524802895148018898
:104680005048D0F8140107F00BFC2AE0C46F00205A
:10469000142008F0E9F9FEF737FA22E0DFF81007F6
:1046A0000078002811D1DFF8F80490F84C000228B7
:1046B00003DB022007F0ACF802E0062007F0A8F8C0
:1046C000DFF8C007002101806EE3DFF8E406007820
:1046D000012806D1DFF8D80600210170052007F077
:1046E00097F801E08C6F00203648B0F808010028E8
:1046F0000DD103F0E0FC3348D0F80C319BB23148C7
:10470000028830480189300001F07CFB86E22D48A8
:10471000B0F80801012810D103F0CDFCBDF8B803B2
:1047200000902848D0F810319BB2264802882548CE
:104730000189300001F002FC70E22248B0F8080163
:10474000022840F06B820CF09DFA0700DFF860064B
:104750000078002840F0EB811A480121A0F80811E8
:104760000120ADF80800DFF84C0C0078C0F34000E1
:10477000C0B2002806D097F89400C0F34000C0B241
:10478000002805D10020ADF808005FE0006A002095
:10479000DFF8240C0068ADF80A00DFF8A8050078FF
:1047A00000282CD0D7F89900C0F3823000280BD114
:1047B0000D2008F059F9FEF7A7F90020ADF8080020
:1047C00044E000BFF0510020D7F89900C0F38230D8
:1047D00001283BD1BDF80A0008F01AF9002805D1DC
:1047E000BDF80A0008F019F900282FD00C2008F0B5
:1047F0003BF9FEF789F90020ADF8080026E0F868DB
:10480000C0F38230002808D10D2008F02DF9FEF702
:104810007BF90020ADF8080018E0F868C0F382309A
:10482000012813D1BDF80A0008F0F2F8002805D1DC
:10483000BDF80A0008F0F1F8002807D00C2008F0B5
:1048400013F9FEF761F90020ADF80800BDF8080083
:10485000012844D13900300001F098FF04F047F9F5
:1048600006F05DFDDFF8DC040078002829D104F0B3
:10487000F4F80222CA48B0F846003621484310F541
:10488000DD7010F134010DF1120006F020F8BDF8D2
:104890001200DFF8E41C098888420CD00222DFF8FD
:1048A000D81CBF48B0F846003623584310F5DD70D9
:1048B000343006F068F8300000F0A6FA300000F05E
:1048C000E7FAB7F87C00FEF706FBB7F87C000CF0BF
:1048D000BFFEB7F87C000BF0FBFD0BF078FDDFF8B6
:1048E00064040078002800F09380AD48B0F84630AA
:1048F0005A46DFF8880CD0F84412DFF8B80401F00B
:104900006FF98246DFF8740CD0F81001824500F090
:104910008581DFF8680C00218180DFF8600C0021C0
:104920000181DFF8580C00210180DFF8500CC0F83D
:1049300010A1DFF8480CDB49C0F8BC11002082460A
:10494000BAF1040F16D2DFF8340CD0F8100182450A
:1049500010D22B00DBB2DFF8280C50F82A20594681
:10496000C420DFF840C300FB0AC0FEF73BF91AF190
:10497000010AE5E72C2332001BA9DFF83804FEF713
:10498000FFF900283BD000200090330010AA1BA99B
:10499000DFF82004FEF748FADFF8E81B086000287B
:1049A0000FD0DFF8E40B0570DFF8E00B06602B009A
:1049B000DBB2DFF8D00B02685946DFF8D00BFEF708
:1049C00011F902200090330010AA1BA9DFF8E403BC
:1049D000FEF72AFADFF8B81B086000280FD0DFF8CE
:1049E000B40B0570DFF8B00B06602B00DBB2DFF80C
:1049F000A00B02685946DFF8A00BFEF7F3F8DFF8CA
:104A00007C0BDFF8781BD1F81011C0F8141105E108
:104A10006348B0F846305A46DFF8600BD0F82011F2
:104A2000604801F0DDF88246DFF8500BD0F8100145
:104A3000824500F0F380DFF8440B00218180DFF82D
:104A40003C0B00210181DFF8340B00210180DFF8ED
:104A50002C0BC0F810A1DFF8240B9249C0F8BC1150
:104A600000208246BAF1040F16D2DFF8100BD0F8FE
:104A70001001824510D22B00DBB2DFF8200B50F87A
:104A80002A205946C420DFF81CC200FB0AC0FEF7EA
:104A9000A9F81AF1010AE5E72C23320006A94148DA
:104AA000FEF76EF9002839D000200090330023AAC9
:104AB00006A93C48FEF7B8F9DFF8C81A08600028D4
:104AC0000FD0DFF8C40A0570DFF8C00A06602B00BB
:104AD000DBB2DFF8B00A02685946DFF8B00AFEF729
:104AE00081F802200090330023AA06A92D48FEF782
:104AF0009BF9DFF89C1A086000280FD0DFF8940AB1
:104B00000570DFF8940A06602B00DBB2DFF8800A3C
:104B100002685946DFF8800AFEF764F8DFF85C0A9D
:104B2000DFF8581AD1F81011C0F8141176E0A04837
:104B30000078012872D183480078002834D097F893
:104B40004E0003280BD097F84E00072807D097F89F
:104B50004E000C2803D097F84E000D2852D1D7F8FC
:104B60009900C0F3823000284CD197F8950097F84F
:104B7000961010EB0120ADF80800022202A98C4823
:104B80004078074BB3F846305FF0360C0CFB03F36C
:104B900013F5DD7313EB4000C01D05F0F4FE31E0AA
:104BA000486E00201453002097F84E0003280BD0C5
:104BB00097F84E00072807D097F84E000C2803D02E
:104BC00097F84E000D281DD1F868C0F382300028F8
:104BD00018D1387A797A10EB0120ADF8080002225A
:104BE00002A973484078DFF8B839B3F846305FF06F
:104BF000360C0CFB03F313F5DD7313EB4000C01D03
:104C000005F0C1FEFDF7DAFA052006F001FE4FF4CB
:104C100012720021DFF864090BF0A0FAFDF762FBC5
:104C2000BDF80E00C0B207F04AFFBDF8B803002877
:104C300040F0B880DFF84409B0F80801002840F0DF
:104C4000B180DFF870070078C0F34000C0B20028E0
:104C50000FD0DFF864070068ADF800000099EDB2EE
:104C6000280080B2FDF734F8DFF8C00C0021018085
:104C700034E0DFF8B80C0088042815DADFF83407D0
:104C80000078C0F38000C0B200280DD0DFF82807FC
:104C90000068ADF800000099EDB2280080B2FDF781
:104CA00017F814E0C80300204FF6FF70ADF80000BD
:104CB0000099DFF8E008007880B2FDF709F8DFF826
:104CC000F406007810F0FB00DFF8E8160870DFF853
:104CD0005C0C0088401CDFF8541C0880DFF8500C86
:104CE0000078C0F34000C0B2002810D0DFF8440CB8
:104CF0000068ADF800000099DFF89808007880B2ED
:104D0000FDF798F9DFF8300C0021018036E0DFF87C
:104D1000280C0088042817DADFF8140C0078C0F398
:104D20008000C0B200280FD0DFF8080C0068ADF892
:104D300000000099DFF85C08007880B2FDF77AF98E
:104D400015E000BF087200204FF6FF70ADF80000BC
:104D50000099DFF84008007880B2FCF7B9FFDFF86F
:104D6000D00B007810F0FB00DFF8C41B0870DFF8F0
:104D7000C80B0088401CDFF8C01B08800BA9DFF8B7
:104D8000BC0B006804F0E7FFBDF83000002809D133
:104D90000121DFF8F8070AF097FA0121DFF8F80798
:104DA0000AF092FA0BF013FB0DF56F7DBDE8F08F62
:104DB00054710020B4530020F0B599B004000D00E8
:104DC000E86F14EB400006006022DFF8740B8119D5
:104DD00000A803F0F3FF002007003800C0B2DFF89E
:104DE0009817098880B288420BD2009816EB4006CB
:104DF0006022DFF84C0B811900A803F0DFFF7F1C55
:104E0000EBE7300019B0F0BDF0B5BFB00400DFF83B
:104E1000340B0078002812D000200700FFB2412F89
:104E20002DDAFFB2DFF8200B50F82710FFB2DFF8C1
:104E30009C0D10EBC7000AF0D1FC7F1CEEE7962218
:104E4000DFF8FC0A011900A803F0B8FF01002000F8
:104E5000FFF7B2FF05006022DFF8E40A411926A837
:104E600003F0ACFF399815EB400006004FF40272D6
:104E7000DFF8CC0A8119DFF8540D03F09FFF3FB033
:104E8000F0BD0000F86E002010660020283C0020D5
:104E9000F0B5C1B00400002C24D0DFF8A80A0078D7
:104EA00000281FD19622DFF8980A011903A803F001
:104EB00085FF01002000FFF77FFF05006022DFF87B
:104EC000800A411929A803F079FFDDF8820014EB6C
:104ED000400006000422DFF8680A811900A803F0E8
:104EE0006DFF02E000208DF8030000200700FFB2F4
:104EF000162F55DA9DF80300002842D0BDF8860031
:104F000000283ED0BDF80001BDF801100818FFB21E
:104F10003818062101FB0050603006000622DFF839
:104F2000200A811901A803F049FFBDF808000028F4
:104F30001ED03E9815EB4000019910EB4100060091
:104F4000BDF80820DFF8F8098119FFB24020DFF82A
:104F5000803C00FB073003F031FFBDF80800FFB2D2
:104F60004021DFF86C2C01FB07210022425415E0A0
:104F7000FFB24020DFF8581C00FB07100021017031
:104F80000CE0FFB2DFF84C0C50F82710FFB24020C5
:104F9000DFF83C2C00FB07200AF020FC7F1CA6E772
:104FA000002C12D0DFF89C09007800280DD1DDF824
:104FB000820014EB4000001D06000422DFF8800987
:104FC000811900A803F0FAFE02E000208DF803002A
:104FD00000200700FFB20B2F50DA9DF803000028D5
:104FE0003ED0BDF8860000283AD0BDF80001BDF8DB
:104FF00001100818FFB23818062101FB005060307C
:1050000006000622DFF83809811901A803F0D6FE50
:10501000BDF8080000281CD03E9815EB400001990F
:1050200010EB41000600BDF80820DFF814098119D3
:10503000FFB2DFF8A40B10EB071003F0BFFEBDF8C2
:105040000800FFB2DFF8901B11EB07110022425459
:1050500012E0FFB23801DFF8801B002242540BE05F
:10506000FFB2DFF8780B50F82710FFB2DFF8680BBB
:1050700010EB07100AF0B2FB7F1CABE7002C12D03C
:10508000DFF8C008007800280DD1DDF8820014EBAD
:105090004000083006000422DFF8A408811900A8A7
:1050A00003F08CFE02E000208DF8030000200700D2
:1050B000FFB2342F55DA9DF80300002842D0BDF826
:1050C000860000283ED0BDF80001BDF80110081888
:1050D000FFB23818062101FB00506030060006229E
:1050E000DFF85C08811901A803F068FEBDF808002C
:1050F00000281ED03E9815EB4000019910EB4100AE
:105100000600BDF80820DFF838088119FFB24020FA
:10511000DFF8E83C00FB073003F050FEBDF8080064
:10512000FFB24021DFF8D42C01FB072100224254BA
:1051300015E0FFB24020DFF8C41C00FB071000217F
:1051400001700CE0FFB2DFF8B80C50F82710FFB286
:105150004020DFF8A82C00FB07200AF03FFB7F1C53
:10516000A6E741B0F0BD00006471002070B50400F6
:105170000D00B4F8B7004FF6FF71884203D1B4F8C0
:10518000B500002815D02068B4F8B710081806003C
:10519000B4F8B520DFF8A8078119280003F00EFE47
:1051A000B4F8B5004019002100F8011CB4F8B500AE
:1051B00003E000202870B4F8B50070BDF0B5C1B0B0
:1051C00004000D001600B6B24FF6FF70864229D0DB
:1051D0009622DFF86C07011902A803F0EFFD010029
:1051E0002000FFF7E9FD07006022DFF85407C1192E
:1051F00028A803F0E3FDB6B2062000FB067010F10C
:1052000060070622DFF83807C11900A803F0D6FDB1
:1052100002A92000FFF7D0FD0700BDF80400002818
:1052200004D118E000202870002017E03C9817EB0C
:105230004000009910EB4107BDF80420DFF800079B
:10524000C119280003F0BAFDBDF804000021415542
:10525000BDF8040002E000202870002041B0F0BD3D
:105260002DE9F04F99B004000D0016001F00DFF883
:10527000D406007800280AD000961022009810F179
:105280001001380003F09AFD1020814630E0AB4653
:10529000B246DAF812004FF6FF71884224D0594620
:1052A0002000FFF789FD80466022DFF8940610EBAE
:1052B000080101A803F082FD109818EB4000DAF80D
:1052C000121010EB41089BF80C20DFF8740610EB6D
:1052D0000801380003F072FD9BF80C000021C15555
:1052E0009BF80C00814603E000203870002002E0AB
:1052F0005FFA89F9484619B0BDE8F08F2DE9F04F03
:1053000099B004000D0016001F00DFF83806007881
:10531000002809D0009610220098811D380003F063
:105320004DFD102081463FE0AB46B246DAF808005A
:105330004FF6FF71884214D059462000FFF73CFD1C
:1053400080466022DFF8F80510EB080101A803F0A1
:1053500035FDBAF80600C0F3C20080B201280CD1B6
:1053600003E000203870002021E0129818EB400084
:10537000DAF8081010EB410806E0119818EB40002D
:10538000DAF8081010EB41089BF80C20DFF8B005A4
:1053900010EB0801380003F011FD9BF80C00002110
:1053A000C1559BF80C0081465FFA89F9484619B04F
:1053B000BDE8F08F701400200C14002030B583B0CD
:1053C000040000200500002D2CD12900C9B274482A
:1053D00005F0C0FB002812D0714810EB8500704921
:1053E000D1F8011081606E4828186D49097880F85D
:1053F0004D10681C6A4981F84C006D1CE3E7002DD4
:1054000008D1102007F030FBFDF77EFB032006F0EB
:10541000FFF9B0E0012D05D1DFF8F00A807806F041
:10542000F7F9A8E002F047FEA4B2200002282FD02E
:10543000032806D007284DD0082851D0092853D07A
:1054400053E05748B0F84600554991F84C10491EB2
:1054500088421CDA5248B0F84600401C5049A1F876
:1054600046004F484E49B1F84610A0F84A104C4843
:10547000B0F84A004A49B1F848100831884206DBC2
:105480004748B0F84800401C4549A1F848002CE0C6
:105490004348B0F8460000281BD04148B0F8460009
:1054A000401E3F49A1F846003D483D49B1F846102D
:1054B000A0F84A103A48B0F84A003949B1F8481003
:1054C000884206D23648B0F84800401E3449A1F858
:1054D00048000AE0DFF8340A807806F099F904E021
:1054E000032006F095F900E0FFE72D480021016454
:1054F0002B48B0F848000500294890F84C00854238
:1055000037D2082D35D22648281890F84D30DFF8CC
:10551000042ADFF8041ADFF8040A0AF05FF92048C9
:10552000B0F84A00854211D11D48006C10F11001FD
:105530001B48016400200190DFF8E4090090DFF8C7
:10554000DC39012200200AF063F910E01448006CF5
:1055500010F110011248016400200190DFF8C00929
:105560000090DFF8B839002200200AF051F96D1CD4
:10557000C2E70AF02CFF37BDEA710020F05100208D
:1055800080640020E01300206E140020DC13002053
:10559000A414002032150020A01400206061002017
:1055A000486E00202DE9FD4FA2B00D002E9C5FF04B
:1055B000000800208DF80C00E2480078002800F078
:1055C000D780229806904FF4C8720021DFF8540962
:1055D0000AF0C4FDBDF890004FF6FF7188420AD171
:1055E00001208DF80C000020ADF890000698C089CD
:1055F000ADF8120021E0BDF890302A0012A90698FB
:1056000001F01CF90590BDF84C00C0F3C20080B257
:10561000012810D19DF84900ADF8120024A801908E
:10562000BDF84A00009000232A0012A9069806F04F
:10563000B1FB059001E0002074E1BDF890008346C5
:10564000002082461FFA8BFBBDF89000BDF81210B7
:105650000818834580F265811FFA8BFBBBF1640F4C
:1056600080F05F819DF80C00002803D118EB0B003F
:10567000060000E05E4633009BB22A001AA9069895
:1056800001F0DCF80590059800286ED000208146D6
:10569000BDF86C00C0F3C20080B2012839D19DF87A
:1056A0000C00002803D1701CADF8100005E0BDF817
:1056B000120018EB0000ADF810000020ADF80E004D
:1056C000BDF810000700BFB2BDF810009DF86910CA
:1056D0000818874218DA0DF10E000290E4B2019426
:1056E000BDF86A000090BDF80E00C3199BB2BDF86A
:1056F0008C202900069806F025FA10EB0900814657
:1057000018F101087F1CDEE7BDF80E0010EB080859
:105710001DE0BDF82600C0F3C20080B2042802D10B
:1057200019F1010913E0E4B2002C08D1BDF88C3066
:105730002A001AA9069800F053FA814607E0BDF83E
:105740008C302A001AA9069800F000F98146B9F1B8
:10575000000F0AD0DFF8D00720F81A60DFF8C4077E
:10576000059940F82A101AF1010A1BF1010B69E7AB
:10577000229807904FF4C8720021DFF8B0070AF0B2
:10578000EDFCBDF890004FF6FF7188420AD1012070
:105790008DF80C000020ADF890000798008BADF854
:1057A000120022E0BDF890302A000DA9079801F000
:1057B00045F80590BDF83A00C0F3C20080B2012858
:1057C00011D19DF83500ADF8120024A80190DDF844
:1057D000360080B2009000232A000DA9079806F039
:1057E000D9FA059001E000209CE0BDF890008346C6
:1057F000002082461FFA8BFBBDF89000BDF8121006
:105800000818834580F28D801FFA8BFBBBF1640F73
:1058100080F087809DF80C00002803D118EB0B0066
:10582000060000E05E4633009BB22A0008A90798F4
:1058300001F004F80590059800286FD000208146FB
:10584000BDF82600C0F3C20080B201283AD19DF80D
:105850000C00002803D1701CADF8100005E0BDF865
:10586000120018EB0000ADF810000020ADF80E009B
:10587000BDF810000700BFB2BDF810009DF8211060
:105880000818874219DA0DF10E000290E4B2019473
:10589000DDF8220080B20090BDF80E00C3199BB263
:1058A000BDF88C202900079806F04CF910EB090090
:1058B000814618F101087F1CDDE7BDF80E0010EBF2
:1058C00008081DE0BDF82600C0F3C20080B204281D
:1058D00002D119F1010913E0E4B2002C08D1BDF89E
:1058E0008C302A0008A9079800F07AF9814607E071
:1058F000BDF88C302A0008A9079800F027F88146E7
:10590000B9F1000F0AD0DFF8200620F81A60DFF89E
:105910001C06059940F82A101AF1010A1BF1010B27
:1059200068E7504625B0BDE8F08F0000F471002014
:1059300034150020D0140020F6710020887100205A
:105940000000040808720020688E03082DE9F34F58
:1059500099B014009B461FFA8BFBBBF1000F01D0DE
:1059600000202FE11FFA8BFB362000FB0BF010F517
:10597000DD70303004900422049901A804F0A7FFE0
:1059800000200600DFF8A8050078002800F08E80CF
:10599000199802901A9880464FF4C8720021DFF8D7
:1059A00094050AF0DBFB002082460020814698F82F
:1059B00001001FFA8AFA80B2824580F002811FFA44
:1059C0008AFABAF1640F80F0FC801FFA8AFACDF8E7
:1059D00000A023000DAA4146029800F063FF0500D5
:1059E000002D55D09DF8380010F01F0F50D0BDF895
:1059F0005800BDF804100912C0B2084248D00E98F1
:105A0000C0F38230002843D19DF8380010F01F0009
:105A1000032811D09DF8380010F01F0007280BD084
:105A20009DF8380010F01F000D2805D09DF83800B3
:105A300010F01F000C282BD10E9810F42870B0F530
:105A4000287F02D10120060022E00E98C0F34020FA
:105A5000002807D0DFF8E0040068002802D0012009
:105A6000060015E00E98C0F34010002804D0DFF8BF
:105A7000C8040068032809D00E98C0F3C01000289D
:105A800006D0DFF8B4040068022801D10020060027
:105A9000B6B2002E07D000200600DFF8980440F8C8
:105AA000295019F101091AF1010A80E719980390A8
:105AB0001A9807004FF4C8720021DFF8E40D0AF0CD
:105AC0004DFB002082460020814678781FFA8AFA32
:105AD00080B2824575D21FFA8AFABAF1640F70D289
:105AE0001FFA8AFACDF800A0230005AA390003980E
:105AF00000F0D8FE0500002D55D09DF8180010F0DC
:105B00001F0F50D0BDF82C00BDF804100912C0B210
:105B1000084248D00698C0F38230002843D19DF84F
:105B2000180010F01F00032811D09DF8180010F085
:105B30001F0007280BD09DF8180010F01F000D283B
:105B400005D09DF8180010F01F000C282BD10698E6
:105B500010F42870B0F5287F02D10120060022E061
:105B60000698C0F34020002807D0DFF8CC03006877
:105B7000002802D00120060015E00698C0F340106E
:105B8000002804D0DFF8B0030068032809D0069885
:105B9000C0F3C010002806D0DFF89C03006802287C
